:020000040800F2
:1000000008040020ED0100087B0400085D020008E0
:100010007904000859020008990500080000000052
:100020000000000000000000000000007F04000845
:100030005B020008000000007D0400088104000845
:10004000070200080702000807020008070200086C
:10005000070200080702000807020008070200085C
:10006000070200080702000807020008070200084C
:10007000070200080702000807020008070200083C
:10008000070200080000000007020008070200083D
:10009000070200080702000807020008070200081C
:1000A000070200080702000807020008070200080C
:1000B00007020008070200080702000807020008FC
:1000C00007020008070200080702000807020008EC
:1000D00007020008070200080702000807020008DC
:1000E00007020008070200080702000807020008CC
:1000F00007020008070200080702000800000000CD
:1001000000000000070200080000000007020008CD
:1001100007020008000000000702000807020008AC
:10012000070200080702000807020008070200088B
:10013000070200080000000000000000070200089D
:10014000070200080702000800000000000000008D
:10015000000000000000000000000000000000009F
:10016000000000000000000000000000070200087E
:10017000070200080000000000000000000000006E
:10018000000000000702000800000000000000005E
:10019000000000000000000000000000000000005F
:1001A000000000000000000007020008070200082D
:1001B000070200080702000807020008000000000C
:1001C000000000000702000800000000000000001E
:1001D0000702000807020008DFF80CD000F02AF838
:1001E00000480047B9050008080400200648804779
:1001F00006480047FEE7FEE7FEE7FEE7FEE7FEE70C
:10020000FEE7FEE7FEE7FEE77D050008D9010008EE
:10021000D2B201E000F8012B491EFBD27047002248
:10022000F6E710B513460A4604461946FFF7F0FFF5
:10023000204610BD064C074D06E0E06840F0010383
:1002400094E8070098471034AC42F6D3FFF7C8FF94
:100250004406000864060008FEE77047FEE7000059
:10026000044908B5CA6C0243CA64C96C01400091D4
:1002700008BD000000100240F0B50A68032492FA9D
:10028000A2F2B2FA82F30F257BE0324601269E40AD
:10029000324075D0D1F804E0066892FAA2F7B7FAB6
:1002A00087F74FEA470C04FA0CF7BE4392FAA2F71D
:1002B000B7FA87F77F000EFA07FE46EA0E060660D9
:1002C0004E68012E01D0022E15D1D1F808E08668C3
:1002D00092FAA2F7B7FA87F74FEA470C04FA0CF73D
:1002E000BE4392FAA2F7B7FA87F77F000EFA07FE2D
:1002F00046EA0E068660D1F810C0C66892FAA2F7E8
:10030000B7FA87F77F0004FA07FE92FAA2F7B7FA66
:1003100087F77F0026EA0E060CFA07FC46EA0C0671
:10032000C6604E68022E2BD1FF2A14D84E69076A88
:1003300092FAA2FCBCFA8CFC4FEA8C0C05FA0CFC7D
:1003400092FAA2F2B2FA82F2920027EA0C079640E1
:100350003743076214E04F69466A120A92FAA2FC18
:10036000BCFA8CFC4FEA8C0C05FA0CFC92FAA2F257
:10037000B2FA82F2920026EA0C0697403E434662A9
:100380005B1C0A681646DA407FF47FAF4A68012A90
:1003900001D0022A07D1CB6841683246914306FB5F
:1003A00003F2114341600020F0BD4FF47A71B0FBBD
:1003B000F1F14FF0E020491E4161002181610521EA
:1003C0000161704703498A6822F0F00202438A60A3
:1003D00070470000001002400149086070470000AB
:1003E0000400002008B54FF0E0210A690092421C89
:1003F00000D0401C0A69D20300D5401E0028F9D164
:1004000008BD000000B587B018216846FFF707FF58
:100410002020FFF725FF0420FFF722FF0120FFF730
:100420001FFF08484FF48071816200910121019102
:1004300000210291039104916946FFF71DFF07B067
:1004400000BD0000000800480A484CF6CC4101609D
:1004500045F2555101600021416040F6FF71016194
:1004600040F69F718160C1684907FCD14AF6AA2114
:100470000160704700300040FEE7704770477047EA
:1004800070470000364810B5016821F00F0141F0B7
:1004900008010160334850F8801F21F48071016029
:1004A000314C206840F4807020602068C0F38020C8
:1004B0000028FAD0606820F0FE4040F08040606084
:1004C000D4F8940040F00100C4F89400D4F89400EB
:1004D000C0F340000028F9D0E16845F23250234AC9
:1004E00011400843E060E06840F08070E060206800
:1004F00040F0807020602068C0F340600028FAD08F
:10050000A06840F00300A0608020FFF75BFFA068B8
:1005100000F00C000C28FAD11548016841F08071F8
:1005200001601448016841F001010160002141604F
:1005300041686429FCD30020FFF744FFA06820F441
:10054000E060A060A06820F46050A0600A4C2046E3
:10055000FFF72BFF2046BDE81040FFF73DBF00002E
:100560000020024000700040001002400C80FFF9A3
:10057000FCED00E0001000E080FE210A0548016863
:1005800041F47001016003494FF000608039086058
:100590007047000088ED00E0FEE702E008C8121F87
:1005A00008C1002AFAD170477047002001E001C15C
:1005B000121F002AFBD170471B4808B5016E41F09D
:1005C00001010166016E01F001010091816D41F0B0
:1005D00080518165806D154900F080500090086859
:1005E0004FF6FF021040124A40F44070104308607A
:1005F0001048816841F480418160FFF743FFFFF7B5
:1006000001FFFFF721FF0C4D4FF48074AC610A200D
:10061000FFF7E8FEAC62094C094E4AF6AA252068AD
:10062000FFF7E0FE3560FAE7001002400CED00E055
:100630000000FA050070004000080048000000209B
:1006400000300040640600080000002008000000A0
:100650009A0500086C06000808000020000400004D
:0C066000AA050008E00100000024F400DE
:04000005080001D915
:00000001FF
